{
    "ERC20_IELE": {
        "pre": {
            "0xa94f5374fce5edbc8e2a8697c15331677e6ebf0b": {
                "nonce": "0x00", 
                "balance": "0xe8d4a51000", 
                "storage": {}, 
                "code": ""
            },
            "0x1000000000000000000000000000000000000000": {
                "nonce": "0x00", 
                "balance": "0x0", 
                "storage": {
                    "0x020000000000000000000000000000000000000007a94f5374fce5edbc8e2a8697c15331677e6ebf0b": "0x2710",
                    "0x010000000000000000000000000000000000000007": "0x2710",
                    "0x0": "0x2710"
                }, 
                "code": "../../../iele-examples/erc20.iele"
            }
        },
        "lastblockhash": "0x1c61b4ee6a550aebe8a2f84ab93cd242779111e26b92f0a8d00d77a1e4ac4b8b", 
        "blocks": [
            {
                "out": ["0x1"],
                "uncleHeaders": [], 
                "transactions": [
                    {
                        "nonce": "0x00", 
                        "function": "transferFrom", 
                        "gasLimit": "0x100000", 
                        "value": "0x00", 
                        "to": "0x1000000000000000000000000000000000000000", 
                        "s": "0x0177d5f79cf76d125dc25bbdf2c6cda095fb8b2e7156734fee9f10b346af96e6",
                        "r": "0xb17b5e2595ae03145010037c63c663044a43c87f190485f5bc3a1d77acde2496",
                        "arguments": [
                          "0x0000000000000000000000000000000000000007",
                          "0x0000000000000000000000000000000000000005",
                          "0x2710"
                        ], 
                        "v": "0x1b", 
                        "data": "",
                        "gasPrice": "0x01"
                    }
                ], 
                "blockHeader": {
                    "gasLimit": "0x174876e800", 
                    "number": "0x01", 
                    "difficulty": "0x020000", 
                    "timestamp": "0x03e8", 
                    "coinbase": "0x2adc25665018aa1fe0e6bc666dac8fc2697ff9ba", 
                    "gasUsed": ""
                }
            }
        ], 
        "network": "Albe", 
        "checkGas": false,
        "genesisRLP": "0xf901fcf901f7a00000000000000000000000000000000000000000000000000000000000000000a01dcc4de8dec75d7aab85b567b6ccd41ad312451b948a7413f0a142fd40d49347942adc25665018aa1fe0e6bc666dac8fc2697ff9baa0d54ec35ca872c653659ad91eaa355665c286183b541a0519b3ab765a2d6733c3a056e81f171bcc55a6ff8345e692c0f86e5b48e01b996cadc001622fb5e363b421a056e81f171bcc55a6ff8345e692c0f86e5b48e01b996cadc001622fb5e363b421b9010000000000000000000000000000000000000000000000000000000000000000000000000000000000000000000000000000000000000000000000000000000000000000000000000000000000000000000000000000000000000000000000000000000000000000000000000000000000000000000000000000000000000000000000000000000000000000000000000000000000000000000000000000000000000000000000000000000000000000000000000000000000000000000000000000000000000000000000000000000000000000000000000000000000000000000000000000000000000000000000000000000000000000000000000000000000830200008085174876e800808203b642a056e81f171bcc55a6ff8345e692c0f86e5b48e01b996cadc001622fb5e363b421880102030405060708c0c0", 
        "postState": {
            "0xa94f5374fce5edbc8e2a8697c15331677e6ebf0b": {
                "nonce": "0x01", 
                "balance": "0xe8d4a51000", 
                "storage": {}, 
                "code": ""
            },
            "0x1000000000000000000000000000000000000000": {
                "nonce": "0x00", 
                "balance": "0x0", 
                "storage": {
                    "0x010000000000000000000000000000000000000005": "0x2710",
                    "0x0": "0x2710"
                }, 
                "code": "../../../iele-examples/erc20.iele"
            }
        }
    }
}
