{
    "Forwarder_IELE": {
        "pre": {
            "0xa94f5374fce5edbc8e2a8697c15331677e6ebf0b": {
                "nonce": "0x00", 
                "balance": "0xe8d4a51000", 
                "storage": {}, 
                "code": ""
            }
        },
        "lastblockhash": "0x1c61b4ee6a550aebe8a2f84ab93cd242779111e26b92f0a8d00d77a1e4ac4b8b", 
        "blocks": [
            {
                "uncleHeaders": [], 
                "transactions": [
                    {
                        "nonce": "0x00", 
                        "function": "", 
                        "gasLimit": "0x100000", 
                        "value": "0x00", 
                        "to": "", 
                        "arguments": [
                        ], 
                        "data": "../../../iele-examples/forwarder.iele",
                        "gasPrice": "0x01",
                        "secretKey": "45a915e4d060149eb4365960e6a7a45f334393093061116b197e3240065ff2d8"
                    },
	            {
                       "nonce": "0x00", 
                        "function": "", 
                        "gasLimit": "0x100000", 
                        "value": "0x00", 
                        "to": "", 
                        "arguments": [
                          "0xa94f5374fce5edbc8e2a8697c15331677e6ebf0b",
                          "0x6295ee1b4f6dd65047762f924ecd367c17eabf8f"
                        ], 
                        "data": "../../../iele-examples/forwardingWallet-copycreate.iele",
                        "gasPrice": "0x01",
                        "secretKey": "45a915e4d060149eb4365960e6a7a45f334393093061116b197e3240065ff2d8"
                    },
                    {
                        "nonce": "0x00", 
                        "function": "newForwarder", 
                        "gasLimit": "0x100000", 
                        "value": "0x00", 
                        "to": "0xec0e71ad0a90ffe1909d27dac207f7680abba42d", 
                        "arguments": [
                        ], 
                        "data": "",
                        "gasPrice": "0x01",
                        "secretKey": "45a915e4d060149eb4365960e6a7a45f334393093061116b197e3240065ff2d8"
                    },
                    {
                        "nonce": "0x00", 
                        "function": "deposit", 
                        "gasLimit": "0x100000", 
                        "value": "0x0100", 
                        "to": "0xe3476106159f87477ad639e3ddcbb6b240efe459", 
                        "arguments": [
                        ], 
                        "data": "",
                        "gasPrice": "0x01",
                        "secretKey": "45a915e4d060149eb4365960e6a7a45f334393093061116b197e3240065ff2d8"
                    }

               ], 
                "blockHeader": {
                    "gasLimit": "0x174876e800", 
                    "number": "0x01", 
                    "difficulty": "0x020000", 
                    "timestamp": "0x03e8", 
                    "coinbase": "0x2adc25665018aa1fe0e6bc666dac8fc2697ff9ba", 
                    "gasUsed": ""
                }
            }
        ], 
        "network": "Albe", 
        "checkGas": false,
        "genesisRLP": "0xf901fcf901f7a00000000000000000000000000000000000000000000000000000000000000000a01dcc4de8dec75d7aab85b567b6ccd41ad312451b948a7413f0a142fd40d49347942adc25665018aa1fe0e6bc666dac8fc2697ff9baa0d54ec35ca872c653659ad91eaa355665c286183b541a0519b3ab765a2d6733c3a056e81f171bcc55a6ff8345e692c0f86e5b48e01b996cadc001622fb5e363b421a056e81f171bcc55a6ff8345e692c0f86e5b48e01b996cadc001622fb5e363b421b9010000000000000000000000000000000000000000000000000000000000000000000000000000000000000000000000000000000000000000000000000000000000000000000000000000000000000000000000000000000000000000000000000000000000000000000000000000000000000000000000000000000000000000000000000000000000000000000000000000000000000000000000000000000000000000000000000000000000000000000000000000000000000000000000000000000000000000000000000000000000000000000000000000000000000000000000000000000000000000000000000000000000000000000000000000000000830200008085174876e800808203b642a056e81f171bcc55a6ff8345e692c0f86e5b48e01b996cadc001622fb5e363b421880102030405060708c0c0", 
        "postState": {
            "0xa94f5374fce5edbc8e2a8697c15331677e6ebf0b": {
                "nonce": "0x04", 
                "balance": "0xe8d4a50f00", 
                "storage": {}, 
                "code": ""
            },
            "0x6295ee1b4f6dd65047762f924ecd367c17eabf8f": {
                "nonce": "0x01",
                "balance": "0x00",
                "storage": {
                    "0x00": "0xa94f5374fce5edbc8e2a8697c15331677e6ebf0b"
                },
                "code": "../../../iele-examples/forwarder.iele"
            },
            "0xec0e71ad0a90ffe1909d27dac207f7680abba42d": {
                "nonce": "0x02",
                "balance": "0x0100",
                "storage": {
                    "0x00": "0xa94f5374fce5edbc8e2a8697c15331677e6ebf0b",
                    "0x01": "0x6295ee1b4f6dd65047762f924ecd367c17eabf8f"
                },
                "code": "../../../iele-examples/forwardingWallet-copycreate.iele"
            },
            "0xe3476106159f87477ad639e3ddcbb6b240efe459": {
                "nonce": "0x01",
                "balance": "0x00",
                "storage": {
                    "0x00": "0xec0e71ad0a90ffe1909d27dac207f7680abba42d"
                },
                "code": "../../../iele-examples/forwarder.iele"
            }
        }
    }
}
